:020000040000FA
:100000000C9472000C949A000C949A000C949A0030
:100010000C949A000C949A000C949A000C949A00F8
:100020000C949A000C949A000C949A000C949A00E8
:100030000C949A000C949A000C949A000C949A00D8
:100040000C94A9070C949A000C9419080C94F307CB
:100050000C949A000C949A000C949A000C949A00B8
:100060000C949A000C949A00005EBCE2613FDD8320
:10007000C29C7E20A3FD1F41009D23BE46DB65F888
:100080008C11AF32CA57E974000000002400270029
:100090002A0000000000250028002B0000000008B6
:1000A000000201000003040700000000000000003F
:1000B00000000000230026002900040404040404B6
:1000C0000404020202020202030303030303010207
:1000D00004081020408001020408102001020408D6
:1000E00010204B0811241FBECFEFD8E0DEBFCDBFDC
:1000F00011E0A0E0B1E0ECEAF9E102C005900D9258
:10010000A431B107D9F721E0A4E1B1E001C01D920B
:10011000A23FB207E1F710E0C2E7D0E004C02197A8
:10012000FE010E94CE0CC137D107C9F70E94E10839
:100130000C94D40C0C940000CF92DF92EF92FF92BB
:10014000CF938091E5018C3009F44FC038F48B30A7
:10015000F1F060E070E080EC9FE741C085518230B3
:10016000C0F7C091E1016C2F70E0762F66276627FB
:100170007F778091E201682B90E080E00E94890BFC
:100180002DEC3CEC4CEC5DE30E94170C4AC06091F6
:10019000E10170E090E080E00E94890B6B017C013E
:1001A000C091E201C7FF0AC0AC019B0160E070E0B2
:1001B00080E89FEB0E94E60A6B017C01CF706C2FF8
:1001C00070E090E080E00E948B0B2DEC3CEC4CEC5E
:1001D0005DE30E94170CA70196010E94E70ACF91E8
:1001E000FF90EF90DF90CF900895C091E1016C2FC8
:1001F00070E090E080E00E94890B6B017C016091CF
:10020000E2016F7070E090E080E00E948B0B2DECBB
:100210003CEC4CEC5DE30E94170CA70196010E9498
:10022000E70AC7FFDCCF9058DACFCF92DF92EF9288
:10023000FF92CF93DF93B091E601A0E08111AB2F45
:100240008091E70190E0880F991FAC0140555F4F06
:10025000C090EC01D090ED01E090EE01F090EF0144
:1002600030E020E0FA01C591D491E881B90190E035
:1002700080E0EB23EA130AC02F5F3F4F6C157D052A
:100280008E059F0578F36FEF7FEFCB01DF91CF9164
:10029000FF90EF90DF90CF90089581E480937C00F1
:1002A00080917A00806480937A0080917A0086FD44
:1002B000FCCF8091780090917900089590E0FC0146
:1002C000E456FF4F2491FC01E253FF4F3491FC01AF
:1002D000E654FF4FE491EE23C9F0222339F0233096
:1002E00001F1A8F4213019F1223029F1F0E0EE0FEC
:1002F000FF1FEE56FF4FA591B4918FB7F894EC9184
:10030000611126C030953E233C938FBF089527305E
:10031000A9F02830C9F0243049F7809180008F7D02
:1003200003C0809180008F7780938000DFCF84B5F9
:100330008F7784BDDBCF84B58F7DFBCF8091B000FC
:100340008F778093B000D2CF8091B0008F7DF9CFAE
:100350003E2BDACFCF93DF9390E0FC01E253FF4FC7
:10036000249186549F4FFC0184918823C9F090E02A
:10037000880F991FFC01E857FF4FA591B491FC012C
:10038000EE56FF4FC591D49161110DC09FB7F894FF
:100390008C91209582238C938881282328839FBF6A
:1003A000DF91CF910895623051F49FB7F8943C915A
:1003B000822F809583238C93E8812E2BEFCF8FB7EC
:1003C000F894EC912E2B2C938FBFEACF3FB7F89483
:1003D0008091150190911601A0911701B09118011B
:1003E00026B5A89B05C02F3F19F00196A11DB11D90
:1003F0003FBFBA2FA92F982F8827BC01CD01620FCC
:10040000711D811D911D42E0660F771F881F991F86
:100410004A95D1F708958F929F92AF92BF92CF9253
:10042000DF92EF92FF924B015C010E94E6016B01AB
:100430007C010E94E6016C197D098E099F09683EC6
:10044000734081059105A8F321E0821A9108A10863
:10045000B10888EEC80E83E0D81EE11CF11C81149F
:100460009104A104B10429F7FF90EF90DF90CF90A1
:10047000BF90AF909F908F900895CF92DF92EF92B0
:10048000FF920F931F93CF93DF93CDB7DEB7C05486
:10049000D1400FB6F894DEBF0FBECDBF2FB7F89492
:1004A0008091190190911A01A0911B01B0911C013A
:1004B0002FBF4091E8015091E9016091EA017091EC
:1004C000EB018C019D01041B150B260B370BB901A9
:1004D000A801403D57406105710590F48091F001FD
:1004E000C05CDE4F0FB6F894DEBF0FBECDBFDF910C
:1004F000CF911F910F91FF90EF90DF90CF900895D3
:100500008093E8019093E901A093EA01B093EB0195
:100510001092E3011092E2011092E1011092E001C9
:100520001092DF0162E08091E4010E94AA0161E083
:1005300070E080E090E00E940B0261E08091E401B5
:100540000E94AA0160E08091E4010E945E01809116
:10055000E5018551823020F58BE291E10197F1F7B9
:1005600062E08091E4010E94AA018091F10190E093
:100570008230910538F0880F991F880F991F0597D1
:100580000197F1F7F89480E00E9415016F3F7F4FCB
:100590008F4F9F4F61F41092F001789480E0A0CFCC
:1005A00064E170E080E090E00E940B02D9CF81E02E
:1005B0000E9415016F3F7F4F8F4F9F4F61F38E0158
:1005C0000F5F1F4F6E018FEBC81A8EEFD80A7801AC
:1005D00080E00E941501F701608371838283938319
:1005E00081E00E941501F7016483758386839783F8
:1005F000F8E0EF0EF11CEC14FD0451F7789430E0B4
:1006000020E0F801C080D180E280F38044815581F0
:1006100066817781FFEFCF16DF06EF06FF0631F028
:100620004F3F8FEF58076807780719F41092F001D1
:10063000B5CFF90183E0F595E7958A95E1F7E152A9
:10064000FE4F8081880FC416D506E606F70610F126
:1006500080832F5F3F4F085F1F4F2832310589F697
:100660004091E3012091DF018091E001280F3327C1
:10067000331F8091E101280F311D8091E201820F2B
:10068000932F911D99274817190681F681E08093D1
:10069000F00126CF8160DCCFCF92DF92EF92FF9204
:1006A0000E943D02882349F08091E5018B3028F0BB
:1006B0008D3040F08551823030F160E070E080ECA8
:1006C0009FE71CC06091E00170E090E080E00E9434
:1006D0008B0B2DEC3CEC4CEC5DE30E94170C6B019A
:1006E0007C016091DF0170E090E080E00E948B0B64
:1006F0009B01AC01C701B6010E94E70AFF90EF9091
:10070000DF90CF9008956091DF017091E00176272E
:100710006727762790E080E00E94890B2DEC3CEC67
:100720004CEC5DE30E94170CE9CFAF92BF92CF92E1
:10073000DF92EF92FF920F931F93CF93DF936C01A1
:100740007B018B01040F151FEB015E01AE18BF0882
:10075000C017D10759F06991D601ED91FC91019034
:10076000F081E02DC6010995892B79F7C501DF914C
:10077000CF911F910F91FF90EF90DF90CF90BF909E
:10078000AF900895FC01538D448D252F30E0842FC8
:1007900090E0821B930B541710F0CF9608950197A9
:1007A0000895FC01918D828D981761F0A28DAE0F96
:1007B000BF2FB11D5D968C91928D9F5F9F73928F1D
:1007C00090E008958FEF9FEF0895FC01918D828D49
:1007D000981731F0828DE80FF11D858D90E0089516
:1007E0008FEF9FEF0895FC01918D228D892F90E06E
:1007F000805C9F4F821B91098F73992708958DE12B
:1008000091E00E94F30321E0892B09F420E0822F7C
:10081000089580E090E0892B29F00E94FF03811168
:100820000C9400000895FC01A48DA80FB92FB11DF0
:10083000A35ABF4F2C91848D90E001968F73992716
:10084000848FA689B7892C93A089B1898C918370F4
:1008500080648C93938D848D981306C00288F389ED
:10086000E02D80818F7D80830895EF92FF920F931A
:100870001F93CF93DF93EC0181E0888F9B8D8C8D4C
:1008800098131AC0E889F989808185FF15C09FB740
:10089000F894EE89FF896083E889F9898081837003
:1008A000806480839FBF81E090E0DF91CF911F91B2
:1008B0000F91FF90EF900895F62E0B8D10E00F5FD3
:1008C0001F4F0F731127E02E8C8D8E110CC00FB6A9
:1008D00007FCFACFE889F989808185FFF5CFCE0141
:1008E0000E941304F1CFEB8DEC0FFD2FF11DE35AA5
:1008F000FF4FF0829FB7F8940B8FEA89FB898081C4
:100900008062CFCFCF93DF93EC01888D8823B9F03D
:10091000AA89BB89E889F9898C9185FD03C080810A
:1009200086FD0DC00FB607FCF7CF8C9185FFF2CF87
:10093000808185FFEDCFCE010E941304E9CFDF91C6
:10094000CF910895DC0180E0615090F09D9198274F
:10095000E92FEF70F0E0E859FF4F2491E92FE2957D
:10096000EF70F0E0E858FF4FE491822F8E27ECCF34
:100970000895DC012C911196ED91FC91F894818100
:10098000822B81839281322F30959323928387E04B
:1009900090E00197F1F781818323818383E290E0E6
:1009A0000197F1F790817894EFECF0E03197F1F74F
:1009B000922381E009F480E00895FC019081018098
:1009C000F281E02D292F209560FF14C0F8948281D8
:1009D000822382838181892B8183A3E2B0E01197F6
:1009E000F1F78281982B9283789487ED90E00197BC
:1009F000F1F70895F8948281822382838181892B83
:100A00008183AFEFB0E01197F1F78281982B928349
:100A100078948FE090E0EBCFEF92FF920F931F93CB
:100A2000CF93DF93EC01E62E08E010E0FF24F3946F
:100A300061E08E2D8F2109F460E0CE010E94DD047B
:100A4000FF0C01501109A1F7F894E981FA81918115
:100A50008881809589238183E981FA8192818881C7
:100A60008095892382837894DF91CF911F910F9194
:100A7000FF90EF900895EF92FF920F931F93CF9303
:100A8000DF938C017B0165E50E940C05E70188E09E
:100A9000E80EF11C6991C8010E940C05CE15DF0516
:100AA000C9F7DF91CF911F910F91FF90EF900895BB
:100AB000FC0190810180F281E02DF8948181292F41
:100AC00020958223818378943DE743E050E03150C4
:100AD00029F1DA011197F1F780818923C1F3F894A4
:100AE0008281822382838181892B81837894ABE701
:100AF000B7E01197F1F7F894818182238183A3E114
:100B0000B1E01197F1F78081982381E009F080E04E
:100B10007894E3E6F6E03197F1F7089580E00895E0
:100B20006F927F928F929F92AF92BF92CF92DF92FD
:100B3000EF92FF920F931F93CF93DF938C01EB0102
:100B40008091C3019091C4010E945805882309F443
:100B50003EC0B8018091C3019091C4010E943B0541
:100B60006EEB8091C3019091C4010E940C057E013F
:100B70006E0189E0C80ED11C8E01A090C301B09017
:100B8000C40188E0882E912C712C66246394C501E1
:100B90000E94B90481117628660CE1E08E1A910852
:100BA000B1F7F80171928F01CE16DF0631F780910F
:100BB000C3019091C4010E945805813041F4F701AE
:100BC00081917F01811105C0E017F107C1F790E025
:100BD00008C068E0CE010E94A20491E02885281395
:100BE000F6CF892FDF91CF911F910F91FF90EF905A
:100BF000DF90CF90BF90AF909F908F907F906F903D
:100C00000895BF92CF92DF92EF92FF920F931F93BE
:100C1000CF93DF93EC01B62EC72E8D85811105C0D1
:100C2000CE010E94580581110EC01B861D861C86B0
:100C300080E0DF91CF911F910F91FF90EF90DF90B7
:100C4000CF90BF90089560EFCE010E940C0501E0A7
:100C5000E12CD12C11E0CE010E94B904F82ECE0176
:100C60000E94B90491E0F91218C0813099F511344D
:100C7000E0F2DB86D11002C081E08D878B81882372
:100C8000A1F22396EB2DFC2DCF01089629912193FB
:100C9000E817F907D9F781E0CCCFEE2DF0E0F81294
:100CA0000FC08B851817A0F4DE01AE0FBF1F13967F
:100CB0008C91802379F4F12C193008F41C87D12E03
:100CC000EC0FFD1F8381902F9095892383830AC0A9
:100CD0008113F1CFFE01EE0DF11D8381802B838303
:100CE000FF24F3946F2DCE010E94DD041F5F000FDF
:100CF00011F4E39401E087E08E1508F0ACCFB7CF94
:100D0000CF93DF93CDB7DEB761970FB6F894DEBF10
:100D10000FBECDBFE091C301F091C40113861586CB
:100D20001486128611861086178216821582148206
:100D30001382BE01665F7F4F8091C3019091C40111
:100D40000E94010681110DC060E070E08EEF92EC10
:100D500061960FB6F894DEBF0FBECDBFDF91CF9185
:100D6000089567E0CE010A960E94A204998989132A
:100D7000EBCFBE016F5F7F4FCE010A960E949005B8
:100D8000882311F36A8170E0762F6627770F770F3B
:100D9000770F298148E0249F90011124262B372BBF
:100DA0008A858031E1F468856623C9F070E08F811F
:100DB000AB01481B5109CA019695982F8827979532
:100DC00087950E94840CCB018097B90153E0660F90
:100DD000771F5A95E1F760789C01260F371F21385D
:100DE00054EE35070CF4B0CFB901330F880B990BD3
:100DF0000E948B0B20E030E040E05CE30E94170C87
:100E0000A7CF8F929F92AF92BF920F931F93CF93D2
:100E1000DF93CDB7DEB7A1970FB6F894DEBF0FBE54
:100E2000CDBF19A2423008F44AE08E010F5D1F4F7A
:100E3000842E912CB12CA12CA50194010E94980C18
:100E4000E62FB901CA01EA3044F5E05DD801EE931E
:100E50008D01232B242B252B79F790E080E0109730
:100E600069F0FD0101900020E9F73197AF014A1BBD
:100E70005B0BBD018DE191E00E949503A1960FB639
:100E8000F894DEBF0FBECDBFDF91CF911F910F91C0
:100E9000BF90AF909F908F900895E95CD7CFCF928D
:100EA000DF92EF92FF92CF93DF936C01990FEE08E0
:100EB000FF08F7FE19C06DE28DE191E00E94350454
:100EC000EC0166277727CB016C197D098E099F09F4
:100ED0004AE00E9401078C0F9D1FDF91CF91FF9088
:100EE000EF90DF90CF9008954AE0C701B601DF91FF
:100EF000CF91FF90EF90DF90CF900C94010741E0ED
:100F000050E062E171E08DE191E00C949503EF9285
:100F1000FF920F931F93CF93DF937B018A01E90127
:100F20000E944F070E947F07C7010E944F070E943F
:100F30007F07C8010E944F070E947F07CE010E94D1
:100F40004F07DF91CF911F910F91FF90EF900C947D
:100F50007F071F920F920FB60F9211242F933F938A
:100F60008F939F93AF93BF938091190190911A0132
:100F7000A0911B01B0911C013091140123E0230FBB
:100F80002D3758F50196A11DB11D209314018093B2
:100F9000190190931A01A0931B01B0931C01809139
:100FA000150190911601A0911701B09118010196B9
:100FB000A11DB11D8093150190931601A0931701F7
:100FC000B0931801BF91AF919F918F913F912F9155
:100FD0000F900FBE0F901F90189526E8230F0296D2
:100FE000A11DB11DD2CF1F920F920FB60F921124E7
:100FF0002F933F934F935F936F937F938F939F9321
:10100000AF93BF93EF93FF938DE191E00E941304A0
:10101000FF91EF91BF91AF919F918F917F916F91D0
:101020005F914F913F912F910F900FBE0F901F90A6
:1010300018951F920F920FB60F9211242F938F9332
:101040009F93EF93FF93E0912D01F0912E0180810A
:10105000E0913301F091340182FD1BC090818091B9
:1010600036018F5F8F7320913701821741F0E09135
:101070003601F0E0E35EFE4F958F80933601FF91DD
:10108000EF919F918F912F910F900FBE0F901F9016
:1010900018958081F4CFEDE1F1E01382128288EEA1
:1010A00093E0A0E0B0E084839583A683B78384E0D7
:1010B00091E09183808385EC90E09587848784EC30
:1010C00090E09787868780EC90E0918B808B81EC15
:1010D00090E0938B828B82EC90E0958B848B86ECF6
:1010E00090E0978B868B118E128E138E148EAFED3F
:1010F000B1E082E015968C9315978BE016968C9351
:101100001697E0EDF0E0E4911796EC931797ECEB6F
:10111000F0E0E4911896EC93189740E85EE360E005
:1011200070E01D964D935D936D937C93509760E0B6
:1011300089E00E94AA01E7EDF0E0E491A1EDB1E0C1
:10114000EC93E3ECF0E0E491F0E0EE0FFF1FE055EC
:10115000FF4F8591949112969C938E9311971B96B5
:101160001C921B971D961C921D971C961C921C97F7
:101170001A961C921A9719961C92199718961C92F7
:10118000189717961C92179716961C9216971596F5
:101190001C92159714961C92149713961C921397F1
:1011A000EAEBF1E0168A158A1182B287A1871782CD
:1011B0001086108289E0838381E08483858386831F
:1011C0000895CF93DF93CDB7DEB761970FB6F8944C
:1011D000DEBF0FBECDBF789484B5826084BD84B578
:1011E000816084BD85B5826085BD85B5816085BD22
:1011F00080916E00816080936E00109281008091DA
:101200008100826080938100809181008160809361
:101210008100809180008160809380008091B10086
:1012200084608093B1008091B00081608093B000B1
:1012300080917A00846080937A0080917A00826045
:1012400080937A0080917A00816080937A00809107
:101250007A00806880937A001092C100E0912D019D
:10126000F0912E0182E08083E0912901F0912A0122
:101270001082E0912B01F0912C0180E1808310928B
:101280003501E0913101F091320186E08083E091F7
:101290002F01F0913001808180618083E0912F01E6
:1012A000F0913001808188608083E0912F01F0917E
:1012B0003001808180688083E0912F01F0913001BE
:1012C00080818F7D808362E08091E4010E94AA0189
:1012D0002FB7F8948091190190911A01A0911B01E8
:1012E000B0911C012FBF805D9740A109B109809387
:1012F000E8019093E901A093EA01B093EB0187E341
:101300008093F101E091C301F091C4011386158629
:101310001486128611861086178216821582148210
:1013200013821092C1011092C20111E0BE01665FEA
:101330007F4F8091C3019091C4010E9401068823D0
:1013400009F474C067E0CE010A960E94A20499894C
:101350008913ECCF8091C1018F5F8093C1018A8591
:10136000883231F008F048C0803111F08232F1F655
:101370008091C2018F5F8093C2018091BA01811177
:1013800027C08091C3019091C4010E945805BE01FD
:10139000665F7F4F8091C3019091C4010E943B051D
:1013A00064EB8091C3019091C4010E940C0580916F
:1013B000C3019091C4010E94B904082F8091C30118
:1013C0009091C4010E945805011102C01093BA0106
:1013D0008A858031E1F0BE016F5F7F4FCE010A96B2
:1013E0000E949005882331F08D818F33D9F058F415
:1013F0008F31D1F080E00EC08B3309F4B9CF823445
:1014000009F094CFB5CF8F3521F08F3799F78CE065
:1014100001C08BE09091BD01981708F087CF8093B1
:10142000BD0184CF8AE0F6CF89E0F4CF60E08EE0A2
:101430000E94AA0160E08FE00E94AA0160E080E1C2
:101440000E94AA0161E083E00E94AA0161E085E0B8
:101450000E94AA0161E086E00E94AA0180E0282E95
:1014600080E0382E0E94800620E030E44CE156E413
:101470000E94E70A0E94530B6B010E9480060E94A3
:101480004D018C01005F184D0E944D010E944C03DC
:1014900020E030E44CE156E40E94E70A0E94530B3E
:1014A0004B010E944C030E943D028823D9F10E9407
:1014B0009C0020E030E44CE156E40E94E70A0E94E0
:1014C000530B2B010E943D029201A401B601C801F9
:1014D0000E9487078DE191E00E94F303892B51F070
:1014E0008DE191E00E94D103823409F455C0FCF4EF
:1014F0008134E9F19201A401B601C8010E94870775
:1015000066E970E080E090E00E940B022114310453
:1015100009F4A8CF0E94FF03882309F4A3CF0E94F7
:101520000000A0CF60E070E080EC9FE7C2CF833482
:1015300009F43FC08434F1F661E083E00E945E016B
:1015400061E085E00E945E0161E086E00E945E014C
:1015500068EE73E080E090E00E940B0260E083E0C0
:101560000E945E0160E085E00E945E012CC061E0A7
:1015700083E00E945E0168EE73E080E090E00E94EC
:101580000B0260E083E00E945E016AE070E080E0B0
:1015900090E00E940B02AECF61E085E00E945E0108
:1015A00068EE73E080E090E00E940B0260E085E06E
:1015B000EACF61E086E00E945E0168EE73E080E0C1
:1015C00090E00E940B0260E086E0DDCF5058BB2720
:1015D000AA270E94FE0A0C94DD0B0E94CF0B38F064
:1015E0000E94D60B20F039F49F3F19F426F40C9496
:1015F000CC0B0EF4E095E7FB0C94C60BE92F0E9490
:10160000EE0B58F3BA17620773078407950720F0AB
:1016100079F4A6F50C94100C0EF4E0950B2EBA2F6D
:10162000A02D0B01B90190010C01CA01A0011124E8
:10163000FF27591B99F0593F50F4503E68F11A1694
:10164000F040A22F232F342F4427585FF3CF469525
:1016500037952795A795F0405395C9F77EF41F1647
:10166000BA0B620B730B840BBAF09150A1F0FF0F11
:10167000BB1F661F771F881FC2F70EC0BA0F621FFD
:10168000731F841F48F4879577956795B795F795ED
:101690009E3F08F0B0CF9395880F08F09927EE0F82
:1016A0009795879508950E945A0B6894B1110C94F0
:1016B000110C08950E94F60B88F09F5798F0B92FEF
:1016C0009927B751B0F0E1F0660F771F881F991F77
:1016D0001AF0BA95C9F714C0B13091F00E94100CFD
:1016E000B1E008950C94100C672F782F8827B85F0D
:1016F00039F0B93FCCF3869577956795B395D9F7CF
:101700003EF490958095709561957F4F8F4F9F4FD8
:101710000895E89409C097FB3EF4909580957095E4
:1017200061957F4F8F4F9F4F9923A9F0F92F96E92D
:10173000BB279395F695879577956795B795F111A2
:10174000F8CFFAF4BB0F11F460FF1BC06F5F7F4F3F
:101750008F4F9F4F16C0882311F096E911C0772351
:1017600021F09EE8872F762F05C0662371F096E85A
:10177000862F70E060E02AF09A95660F771F881F29
:10178000DAF7880F9695879597F9089597F99F67E7
:1017900080E870E060E008959FEF80EC08950024F9
:1017A0000A941616170618060906089500240A94C6
:1017B00012161306140605060895092E0394000C4C
:1017C00011F4882352F0BB0F40F4BF2B11F460FFDB
:1017D00004C06F5F7F4F8F4F9F4F089557FD905804
:1017E000440F551F59F05F3F71F04795880F97FBE5
:1017F000991F61F09F3F79F087950895121613069F
:101800001406551FF2CF4695F1DF08C016161706CD
:101810001806991FF1CF8695710561050894089502
:10182000E894BB2766277727CB0197F908950E9494
:101830002A0C0C94DD0B0E94CF0B38F00E94D60BC3
:1018400020F0952311F00C94C60B0C94CC0B1124B2
:101850000C94110C0E94EE0B70F3959FC1F3950F41
:1018600050E0551F629FF001729FBB27F00DB11D24
:10187000639FAA27F00DB11DAA1F649F6627B00DB4
:10188000A11D661F829F2227B00DA11D621F739F9D
:10189000B00DA11D621F839FA00D611D221F749FAB
:1018A0003327A00D611D231F849F600D211D822FF2
:1018B000762F6A2F11249F5750409AF0F1F0882319
:1018C0004AF0EE0FFF1FBB1F661F771F881F915046
:1018D0005040A9F79E3F510580F00C94C60B0C9424
:1018E000110C5F3FE4F3983ED4F3869577956795A6
:1018F000B795F795E7959F5FC1F7FE2B880F911D70
:101900009695879597F9089597FB072E16F40094FE
:1019100007D077FD09D00E94BA0C07FC05D03EF431
:10192000909581959F4F0895709561957F4F08958B
:10193000A1E21A2EAA1BBB1BFD010DC0AA1FBB1FD3
:10194000EE1FFF1FA217B307E407F50720F0A21B45
:10195000B30BE40BF50B661F771F881F991F1A94B2
:1019600069F760957095809590959B01AC01BD01DC
:10197000CF010895AA1BBB1B51E107C0AA1FBB1FC3
:10198000A617B70710F0A61BB70B881F991F5A950B
:10199000A9F780959095BC01CD010895EE0FFF1F2A
:1019A0000590F491E02D0994F894FFCF0000000019
:1019B00035049503C2038204F303D103E503090050
:107E0000112484B714BE81FFF0D085E080938100F7
:107E100082E08093C00088E18093C10086E0809377
:107E2000C20080E18093C4008EE0C9D0259A86E02C
:107E300020E33CEF91E0309385002093840096BBD3
:107E4000B09BFECF1D9AA8958150A9F7CC24DD24C4
:107E500088248394B5E0AB2EA1E19A2EF3E0BF2EE7
:107E6000A2D0813461F49FD0082FAFD0023811F036
:107E7000013811F484E001C083E08DD089C08234E0
:107E800011F484E103C0853419F485E0A6D080C0E4
:107E9000853579F488D0E82EFF2485D0082F10E0AE
:107EA000102F00270E291F29000F111F8ED06801E7
:107EB0006FC0863521F484E090D080E0DECF843638
:107EC00009F040C070D06FD0082F6DD080E0C81688
:107ED00080E7D80618F4F601B7BEE895C0E0D1E017
:107EE00062D089930C17E1F7F0E0CF16F0E7DF06D8
:107EF00018F0F601B7BEE89568D007B600FCFDCFD4
:107F0000A601A0E0B1E02C9130E011968C91119780
:107F100090E0982F8827822B932B1296FA010C0160
:107F200087BEE89511244E5F5F4FF1E0A038BF0790
:107F300051F7F601A7BEE89507B600FCFDCF97BE46
:107F4000E89526C08437B1F42ED02DD0F82E2BD052
:107F50003CD0F601EF2C8F010F5F1F4F84911BD097
:107F6000EA94F801C1F70894C11CD11CFA94CF0C13
:107F7000D11C0EC0853739F428D08EE10CD085E9AC
:107F80000AD08FE07ACF813511F488E018D01DD067
:107F900080E101D065CF982F8091C00085FFFCCF94
:107FA0009093C60008958091C00087FFFCCF809118
:107FB000C00084FD01C0A8958091C6000895E0E648
:107FC000F0E098E1908380830895EDDF803219F02E
:107FD00088E0F5DFFFCF84E1DECF1F93182FE3DFCA
:107FE0001150E9F7F2DF1F91089580E0E8DFEE27F6
:047FF000FF270994CA
:027FFE00040479
:00000001FF
